{
  "contractName": "Oracle",
  "abi": [
    {
      "inputs": [
        {
          "internalType": "address",
          "name": "_admin",
          "type": "address"
        }
      ],
      "stateMutability": "nonpayable",
      "type": "constructor"
    },
    {
      "inputs": [],
      "name": "admin",
      "outputs": [
        {
          "internalType": "address",
          "name": "",
          "type": "address"
        }
      ],
      "stateMutability": "view",
      "type": "function",
      "constant": true
    },
    {
      "inputs": [
        {
          "internalType": "bytes32",
          "name": "",
          "type": "bytes32"
        }
      ],
      "name": "data",
      "outputs": [
        {
          "internalType": "uint256",
          "name": "date",
          "type": "uint256"
        },
        {
          "internalType": "uint256",
          "name": "payload",
          "type": "uint256"
        }
      ],
      "stateMutability": "view",
      "type": "function",
      "constant": true
    },
    {
      "inputs": [
        {
          "internalType": "address",
          "name": "",
          "type": "address"
        }
      ],
      "name": "reporters",
      "outputs": [
        {
          "internalType": "bool",
          "name": "",
          "type": "bool"
        }
      ],
      "stateMutability": "view",
      "type": "function",
      "constant": true
    },
    {
      "inputs": [
        {
          "internalType": "address",
          "name": "_reporter",
          "type": "address"
        },
        {
          "internalType": "bool",
          "name": "isReporter",
          "type": "bool"
        }
      ],
      "name": "updateReporter",
      "outputs": [],
      "stateMutability": "nonpayable",
      "type": "function"
    },
    {
      "inputs": [
        {
          "internalType": "bytes32",
          "name": "key",
          "type": "bytes32"
        },
        {
          "internalType": "uint256",
          "name": "payload",
          "type": "uint256"
        }
      ],
      "name": "updateData",
      "outputs": [],
      "stateMutability": "nonpayable",
      "type": "function"
    },
    {
      "inputs": [
        {
          "internalType": "bytes32",
          "name": "key",
          "type": "bytes32"
        }
      ],
      "name": "getData",
      "outputs": [
        {
          "internalType": "bool",
          "name": "result",
          "type": "bool"
        },
        {
          "internalType": "uint256",
          "name": "date",
          "type": "uint256"
        },
        {
          "internalType": "uint256",
          "name": "payload",
          "type": "uint256"
        }
      ],
      "stateMutability": "view",
      "type": "function",
      "constant": true
    }
  ],
  "bytecode": "0x608060405234801561001057600080fd5b5060405161088c38038061088c8339818101604052810190610032919061008d565b806000806101000a81548173ffffffffffffffffffffffffffffffffffffffff021916908373ffffffffffffffffffffffffffffffffffffffff160217905550506100ff565b600081519050610087816100e8565b92915050565b60006020828403121561009f57600080fd5b60006100ad84828501610078565b91505092915050565b60006100c1826100c8565b9050919050565b600073ffffffffffffffffffffffffffffffffffffffff82169050919050565b6100f1816100b6565b81146100fc57600080fd5b50565b61077e8061010e6000396000f3fe608060405234801561001057600080fd5b50600436106100625760003560e01c80630147fb0c146100675780631ec6e24f146100985780632cc1cd9e146100b457806354f6127f146100e4578063a8200ab714610116578063f851a44014610132575b600080fd5b610081600480360381019061007c91906104a1565b610150565b60405161008f929190610660565b60405180910390f35b6100b260048036038101906100ad9190610465565b610174565b005b6100ce60048036038101906100c9919061043c565b61025d565b6040516100db91906105ce565b60405180910390f35b6100fe60048036038101906100f991906104a1565b61027d565b60405161010d939291906105e9565b60405180910390f35b610130600480360381019061012b91906104ca565b6102ee565b005b61013a6103c4565b60405161014791906105b3565b60405180910390f35b60026020528060005260406000206000915090508060000154908060010154905082565b60008054906101000a900473ffffffffffffffffffffffffffffffffffffffff1673ffffffffffffffffffffffffffffffffffffffff163373ffffffffffffffffffffffffffffffffffffffff1614610202576040517f08c379a00000000000000000000000000000000000000000000000000000000081526004016101f990610620565b60405180910390fd5b80600160008473ffffffffffffffffffffffffffffffffffffffff1673ffffffffffffffffffffffffffffffffffffffff16815260200190815260200160002060006101000a81548160ff0219169083151502179055505050565b60016020528060005260406000206000915054906101000a900460ff1681565b600080600080600260008681526020019081526020016000206000015414156102b05760008060009250925092506102e7565b6001600260008681526020019081526020016000206000015460026000878152602001908152602001600020600101549250925092505b9193909250565b60011515600160003373ffffffffffffffffffffffffffffffffffffffff1673ffffffffffffffffffffffffffffffffffffffff16815260200190815260200160002060009054906101000a900460ff16151514610381576040517f08c379a000000000000000000000000000000000000000000000000000000000815260040161037890610640565b60405180910390fd5b6040518060400160405280428152602001828152506002600084815260200190815260200160002060008201518160000155602082015181600101559050505050565b60008054906101000a900473ffffffffffffffffffffffffffffffffffffffff1681565b6000813590506103f7816106ec565b92915050565b60008135905061040c81610703565b92915050565b6000813590506104218161071a565b92915050565b60008135905061043681610731565b92915050565b60006020828403121561044e57600080fd5b600061045c848285016103e8565b91505092915050565b6000806040838503121561047857600080fd5b6000610486858286016103e8565b9250506020610497858286016103fd565b9150509250929050565b6000602082840312156104b357600080fd5b60006104c184828501610412565b91505092915050565b600080604083850312156104dd57600080fd5b60006104eb85828601610412565b92505060206104fc85828601610427565b9150509250929050565b61050f8161069a565b82525050565b61051e816106ac565b82525050565b6000610531600a83610689565b91507f4f6e6c792041646d696e000000000000000000000000000000000000000000006000830152602082019050919050565b6000610571600d83610689565b91507f4f6e6c79205265706f72746572000000000000000000000000000000000000006000830152602082019050919050565b6105ad816106e2565b82525050565b60006020820190506105c86000830184610506565b92915050565b60006020820190506105e36000830184610515565b92915050565b60006060820190506105fe6000830186610515565b61060b60208301856105a4565b61061860408301846105a4565b949350505050565b6000602082019050818103600083015261063981610524565b9050919050565b6000602082019050818103600083015261065981610564565b9050919050565b600060408201905061067560008301856105a4565b61068260208301846105a4565b9392505050565b600082825260208201905092915050565b60006106a5826106c2565b9050919050565b60008115159050919050565b6000819050919050565b600073ffffffffffffffffffffffffffffffffffffffff82169050919050565b6000819050919050565b6106f58161069a565b811461070057600080fd5b50565b61070c816106ac565b811461071757600080fd5b50565b610723816106b8565b811461072e57600080fd5b50565b61073a816106e2565b811461074557600080fd5b5056fea2646970667358221220fbc3ce2f89134faf1cc42156c283b8ade613dc81f0a4c79e43b945a5f9fb09f364736f6c63430008000033",
  "immutableReferences": {},
  "source": "// SPDX-License-Identifier: MIT\npragma solidity ^0.8.0;\n\ncontract Oracle {\n    struct Data {\n        uint256 date;\n        uint256 payload;\n    }\n\n    address public admin;\n    mapping(address => bool) public reporters;\n    mapping(bytes32 => Data) public data;\n\n    constructor(address _admin) {\n        admin = _admin;\n    }\n\n    function updateReporter(address _reporter, bool isReporter) external {\n        require(msg.sender == admin, \"Only Admin\");\n        reporters[_reporter] = isReporter;\n    }\n\n    function updateData(bytes32 key, uint256 payload) external {\n        require(reporters[msg.sender] == true, \"Only Reporter\");\n        data[key] = Data(block.timestamp, payload);\n    }\n\n    function getData(bytes32 key)\n        external\n        view\n        returns (\n            bool result,\n            uint256 date,\n            uint256 payload\n        )\n    {\n        if (data[key].date == 0) {\n            return (false, 0, 0);\n        }\n        return (true, data[key].date, data[key].payload);\n    }\n}\n",
  "sourcePath": "/Users/OOM/Desktop/DeFi Development EatTheBlocks/Oracles/contracts/Oracle.sol",
  "compiler": {
    "name": "solc",
    "version": "0.8.0+commit.c7dfd78e.Emscripten.clang"
  },
  "schemaVersion": "3.4.1",
  "updatedAt": "2021-06-06T06:40:26.172Z",
  "networkType": "ethereum",
  "devdoc": {
    "kind": "dev",
    "methods": {},
    "version": 1
  },
  "userdoc": {
    "kind": "user",
    "methods": {},
    "version": 1
  }
}